{
  "contractName": "Complaint",
  "abi": [
    {
      "constant": true,
      "inputs": [],
      "name": "owner",
      "outputs": [
        {
          "name": "",
          "type": "address"
        }
      ],
      "payable": false,
      "stateMutability": "view",
      "type": "function"
    },
    {
      "inputs": [],
      "payable": false,
      "stateMutability": "nonpayable",
      "type": "constructor"
    },
    {
      "constant": false,
      "inputs": [
        {
          "name": "name",
          "type": "string"
        },
        {
          "name": "officer",
          "type": "string"
        },
        {
          "name": "the_date",
          "type": "string"
        },
        {
          "name": "vname",
          "type": "string"
        },
        {
          "name": "vphone",
          "type": "string"
        },
        {
          "name": "aname",
          "type": "string"
        },
        {
          "name": "the_subject",
          "type": "string"
        },
        {
          "name": "the_details",
          "type": "string"
        },
        {
          "name": "the_hash",
          "type": "string"
        }
      ],
      "name": "setData",
      "outputs": [],
      "payable": false,
      "stateMutability": "nonpayable",
      "type": "function"
    },
    {
      "constant": true,
      "inputs": [],
      "name": "getValue",
      "outputs": [
        {
          "name": "",
          "type": "string"
        }
      ],
      "payable": false,
      "stateMutability": "view",
      "type": "function"
    }
  ],
  "bytecode": "0x60806040523480156200001157600080fd5b5060008060006101000a81548173ffffffffffffffffffffffffffffffffffffffff021916908373ffffffffffffffffffffffffffffffffffffffff1602179055506020604051908101604052806000815250600190805190602001906200007b929190620001ef565b50602060405190810160405280600081525060029080519060200190620000a4929190620001ef565b50602060405190810160405280600081525060039080519060200190620000cd929190620001ef565b50602060405190810160405280600081525060049080519060200190620000f6929190620001ef565b506020604051908101604052806000815250600590805190602001906200011f929190620001ef565b5060206040519081016040528060008152506006908051906020019062000148929190620001ef565b5060206040519081016040528060008152506007908051906020019062000171929190620001ef565b506020604051908101604052806000815250600890805190602001906200019a929190620001ef565b506040805190810160405280600481526020017f4e554c4c0000000000000000000000000000000000000000000000000000000081525060099080519060200190620001e8929190620001ef565b506200029e565b828054600181600116156101000203166002900490600052602060002090601f016020900481019282601f106200023257805160ff191683800117855562000263565b8280016001018555821562000263579182015b828111156200026257825182559160200191906001019062000245565b5b50905062000272919062000276565b5090565b6200029b91905b80821115620002975760008160009055506001016200027d565b5090565b90565b61097580620002ae6000396000f3fe608060405260043610610056576000357c0100000000000000000000000000000000000000000000000000000000900463ffffffff16806279568c1461005b57806320965255146105dc5780638da5cb5b1461066c575b600080fd5b34801561006757600080fd5b506105da600480360361012081101561007f57600080fd5b810190808035906020019064010000000081111561009c57600080fd5b8201836020820111156100ae57600080fd5b803590602001918460018302840111640100000000831117156100d057600080fd5b91908080601f016020809104026020016040519081016040528093929190818152602001838380828437600081840152601f19601f8201169050808301925050505050505091929192908035906020019064010000000081111561013357600080fd5b82018360208201111561014557600080fd5b8035906020019184600183028401116401000000008311171561016757600080fd5b91908080601f016020809104026020016040519081016040528093929190818152602001838380828437600081840152601f19601f820116905080830192505050505050509192919290803590602001906401000000008111156101ca57600080fd5b8201836020820111156101dc57600080fd5b803590602001918460018302840111640100000000831117156101fe57600080fd5b91908080601f016020809104026020016040519081016040528093929190818152602001838380828437600081840152601f19601f8201169050808301925050505050505091929192908035906020019064010000000081111561026157600080fd5b82018360208201111561027357600080fd5b8035906020019184600183028401116401000000008311171561029557600080fd5b91908080601f016020809104026020016040519081016040528093929190818152602001838380828437600081840152601f19601f820116905080830192505050505050509192919290803590602001906401000000008111156102f857600080fd5b82018360208201111561030a57600080fd5b8035906020019184600183028401116401000000008311171561032c57600080fd5b91908080601f016020809104026020016040519081016040528093929190818152602001838380828437600081840152601f19601f8201169050808301925050505050505091929192908035906020019064010000000081111561038f57600080fd5b8201836020820111156103a157600080fd5b803590602001918460018302840111640100000000831117156103c357600080fd5b91908080601f016020809104026020016040519081016040528093929190818152602001838380828437600081840152601f19601f8201169050808301925050505050505091929192908035906020019064010000000081111561042657600080fd5b82018360208201111561043857600080fd5b8035906020019184600183028401116401000000008311171561045a57600080fd5b91908080601f016020809104026020016040519081016040528093929190818152602001838380828437600081840152601f19601f820116905080830192505050505050509192919290803590602001906401000000008111156104bd57600080fd5b8201836020820111156104cf57600080fd5b803590602001918460018302840111640100000000831117156104f157600080fd5b91908080601f016020809104026020016040519081016040528093929190818152602001838380828437600081840152601f19601f8201169050808301925050505050505091929192908035906020019064010000000081111561055457600080fd5b82018360208201111561056657600080fd5b8035906020019184600183028401116401000000008311171561058857600080fd5b91908080601f016020809104026020016040519081016040528093929190818152602001838380828437600081840152601f19601f8201169050808301925050505050505091929192905050506106c3565b005b3480156105e857600080fd5b506105f16107dd565b6040518080602001828103825283818151815260200191508051906020019080838360005b83811015610631578082015181840152602081019050610616565b50505050905090810190601f16801561065e5780820380516001836020036101000a031916815260200191505b509250505060405180910390f35b34801561067857600080fd5b5061068161087f565b604051808273ffffffffffffffffffffffffffffffffffffffff1673ffffffffffffffffffffffffffffffffffffffff16815260200191505060405180910390f35b336000806101000a81548173ffffffffffffffffffffffffffffffffffffffff021916908373ffffffffffffffffffffffffffffffffffffffff16021790555088600190805190602001906107199291906108a4565b5087600290805190602001906107309291906108a4565b5086600390805190602001906107479291906108a4565b50856004908051906020019061075e9291906108a4565b5084600590805190602001906107759291906108a4565b50836006908051906020019061078c9291906108a4565b5082600790805190602001906107a39291906108a4565b5081600890805190602001906107ba9291906108a4565b5080600990805190602001906107d19291906108a4565b50505050505050505050565b606060018054600181600116156101000203166002900480601f0160208091040260200160405190810160405280929190818152602001828054600181600116156101000203166002900480156108755780601f1061084a57610100808354040283529160200191610875565b820191906000526020600020905b81548152906001019060200180831161085857829003601f168201915b5050505050905090565b6000809054906101000a900473ffffffffffffffffffffffffffffffffffffffff1681565b828054600181600116156101000203166002900490600052602060002090601f016020900481019282601f106108e557805160ff1916838001178555610913565b82800160010185558215610913579182015b828111156109125782518255916020019190600101906108f7565b5b5090506109209190610924565b5090565b61094691905b8082111561094257600081600090555060010161092a565b5090565b9056fea165627a7a72305820eafee44dfff1f26c7275a61f0610fe7bf259dd2826c46d40056b0001de664cd60029",
  "source": "//SPDX-License-Identifier: MIT\r\npragma solidity >=0.4.22 <0.9.0;\r\n\r\ncontract Complaint{\r\n\r\n    address public owner;\r\n    string stationName;\r\n    string onDutyOfficer;\r\n    string date;\r\n    string victimName;\r\n    string victimPhone;\r\n    string accusedName;\r\n    string subject;\r\n    string details;\r\n    string fileHash;\r\n\r\n    constructor() public{\r\n        owner = address(0x0);\r\n        stationName = \"\";\r\n        onDutyOfficer = \"\";\r\n        date = \"\";\r\n        victimName = \"\";\r\n        victimPhone = \"\";\r\n        accusedName = \"\";\r\n        subject = \"\";\r\n        details = \"\";\r\n        fileHash = \"NULL\";\r\n    }\r\n\r\n    function setData(\r\n        string memory name,\r\n        string memory officer, \r\n        string memory the_date,\r\n        string memory vname,\r\n        string memory vphone, \r\n        string memory aname,\r\n        string memory the_subject,\r\n        string memory the_details,\r\n        string memory the_hash\r\n    ) public{\r\n        owner = msg.sender;\r\n        stationName = name;\r\n        onDutyOfficer = officer;\r\n        date = the_date;\r\n        victimName = vname;\r\n        victimPhone = vphone;\r\n        accusedName = aname;\r\n        subject = the_subject;\r\n        details = the_details;\r\n        fileHash = the_hash;\r\n    }\r\n\r\n    function getValue() public view returns(string memory){\r\n        return stationName;\r\n    }\r\n}",
  "sourcePath": "C:/blockchain/mark18-working/contracts/Complaint.sol",
  "compiler": {
    "name": "solc",
    "version": "0.5.0+commit.1d4f565a.Emscripten.clang"
  },
  "schemaVersion": "3.0.1",
  "updatedAt": "2022-10-29T18:15:28.621Z",
  "devdoc": {
    "methods": {}
  },
  "userdoc": {
    "methods": {}
  }
}